:10114B0020202D20202D20200020203A20203A2066
:10115B00200053746F70776174636800573A0053C3
:0A116B00455454494E47002020006F
:10120000021D0000070B1901010B1F3B0301160013
:03121000011700C3
:10095C001212E112000312130712131E1212B57BAE
:10096C00FF7A11794B7D017F0112119C7BFF7A116B
:10097C0079547D017F0212119CAF31EF3395E0FE6B
:10098C00AD32ED3395E0FCAB33EB120C6A8F3712C2
:10099C000AB3120B938F1FE51FB40120E5157007E6
:1009AC00751501F5148015E515B40108E4F515125B
:1009BC000AB38008E515B40303E4F515E51F6405D7
:1009CC00704FE515701C7515021212E17BFF7A1140
:1009DC00795D7D017F0112119CE4F51DF51EF51763
:1009EC00802FE515B402057515038008E515B403D1
:1009FC0020E4F5151212E17BFF7A11794B7D017F12
:100A0C000112119C7BFF7A1179547D017F02121126
:100A1C009CE515146015146026146028240370508E
:100A2C00120EB41210F1120D0880457524007525B4
:100A3C00007526147B007A00793112000E80311279
:100A4C0011C2802C7524007525007526147B007A44
:100A5C0000790B12000E7BFF7A1179677D0A7F02F9
:100A6C0012119C7BFF7A11796A7D0A7F0112119C0D
:100A7C00E512602E0513E513C394324007E4F5121A
:100A8C00F513C295B2957F057E001212CCB2957FFC
:100A9C00057E001212CCB2957F057E001212CC029C
:070AAC00099EC29502099E9C
:1011C200E51FB4060CE51770047F0180027F008FD3
:1011D20017E51FB40707E4F51DF51EF517020F3BCF
:100F3B00C2AFAB1EAA1DD2AF7C037DE8AF03AE02DE
:100F4B001208C38E218F22AE02AF037C037DE81201
:100F5B0008C38C238D24AE21AF227C007D3C12086C
:100F6B00C3AA06AB07752B027D017F021210B07B63
:100F7B003A7D037F02121314AE21AF227C007D3C1D
:100F8B001208C3AA04AB05752B027D047F02121055
:100F9B00B07B2E7D067F02121314AE23AF247C0090
:100FAB007D0A1208C3AA06AB07752B027D077F02C9
:030FBB000210B071
:100EB400120D9BE531FB3395E0FA752B027D017F22
:100EC400011210B0E532FB3395E0FA752B027D0474
:100ED4007F011210B0E533FB3395E0FA752B027DE8
:100EE400077F011210B0E534FB3395E0FA752B024D
:100EF4007D017F021210B0E535FB3395E0FA752BC6
:100F0400027D047F021210B0E536FB3395E0FA75DA
:100F14002B027D077F021210B07BFF7A1179677D67
:100F24000A7F0212119CE537FB3395E0FA752B0119
:070F34007D0C7F020210B0EA
:10000E008B218A228923E51FB40217AB24AA25A9C6
:10001E002674011208281207E275F00784E5F01223
:10002E00087DE51F6403600302018FAB24AA25A996
:10003E00261207E2AB21AA22A923F582758300744A
:10004E000112084A1207E2D3648094E3400AAB21FE
:10005E00AA22A923E412087DAB21AA22A92390008B
:10006E00011207FBD36480948C4008900001740148
:10007E0012088F9000011207FBFF6401601DEF64F0
:10008E00036018EF64056013EF6407600EEF6408F9
:10009E006009EF640A6004EFB40C0F9000021207BF
:1000AE00FBD36480949F4067805D9000011207FB34
:1000BE00FF6404600EEF64066009EF64096004EFEC
:1000CE00B40B0F9000021207FBD36480949E403F46
:1000DE0080359000011207FB640270331207E2FFB5
:1000EE0075F0041207C0AFF0EF700F900002120708
:1000FE00FBD36480949D4017800D9000021207FB85
:10010E00D36480949C4008900002740112088FAB57
:10011E0021AA22A923120C50AB21AA22A9239000B6
:10012E0006EF12088F9000031207FBD3648094979A
:10013E00400DAB21AA22A923900003E412088FAB35
:10014E0021AA22A9239000041207FBD3648094BB3A
:10015E004007900004E412088F9000051207FBD3AD
:10016E00648094BB4007900005E412088F9000064F
:10017E001207FBD3648094864007900006E41208B1
:10018E008FE51F64046003020339AB24AA25A92658
:10019E001207E2AB21AA22A923F58275830074FF10
:1001AE0012084A1207E2C364809480500BAB21AA56
:1001BE0022A923746312087DAB21AA22A9239000E1
:1001CE00011207FBC3648094815008900001740CE7
:1001DE0012088F9000011207FBFF6401601DEF648F
:1001EE00036018EF64056013EF6407600EEF640898
:1001FE006009EF640A6004EFB40C28900002120745
:10020E00FBC3648094815008900002741F12088F03
:10021E009000021207FBD36480949F50030202D514
:10022E000202CD9000011207FBFF6404600EEF6422
:10023E00066009EF64096004EFB40B24900002120B
:10024E0007FBC3648094815008900002741E12084C
:10025E008F9000021207FBD36480949E4069805FEA
:10026E009000011207FB6402705D1207E2FF75F049
:10027E00041207C0AFF0EF70249000021207FBC308
:10028E00648094815008900002741D12088F9000B3
:10029E00021207FBD36480949D402C8022900002B2
:1002AE001207FBC3648094815008900002741C12E4
:1002BE00088F9000021207FBD36480949C40089034
:1002CE000002740112088F9000031207FBC36480B2
:1002DE0094805008900003741712088F9000041237
:1002EE0007FBC3648094805008900004743B12088E
:1002FE008F9000051207FBC3648094805008900015
:10030E0005743B12088F9000061207FBC36480949D
:10031E00805008900006740612088F120C50AB2104
:10032E00AA22A923900006EF12088FAB24AA25A9B2
:10033E00261207E27014E516B4010F7BFF7A1179CD
:10034E00727D017F0112119C8018AB21AA22A92374
:10035E001207E2FB3395E0FA752B027D017F011245
:10036E0010B0AB24AA25A9261207E2B40114E51693
:10037E00B4010F7BFF7A1179727D047F0112119CFB
:10038E00801BAB21AA22A9239000011207FBFB338D
:10039E0095E0FA752B027D047F011210B0AB24AAF2
:1003AE0025A9261207E2B40214E516B4010F7BFF4D
:1003BE007A1179727D077F0112119C801BAB21AAE5
:1003CE0022A9239000021207FBFB3395E0FA752B4E
:1003DE00027D077F011210B0AB24AA25A9261207B1
:1003EE00E2B40314E516B4010F7BFF7A1179727D26
:1003FE00017F0212119C801BAB21AA22A92390001F
:10040E00031207FBFB3395E0FA752B027D017F0289
:10041E001210B0AB24AA25A9261207E2B40414E5E3
:10042E0016B4010F7BFF7A1179727D047F021211CF
:10043E009C801BAB21AA22A9239000041207FBFB70
:10044E003395E0FA752B027D047F021210B0AB24B7
:10045E00AA25A9261207E2B40514E516B4010F7BEE
:10046E00FF7A1179727D077F0212119C801BAB21DE
:10047E00AA22A9239000051207FBFB3395E0FA751B
:10048E002B027D077F021210B0AB24AA25A92612DB
:10049E0007E2B40612E516B4010D7BFF7A117972EC
:1004AE007D0C7F0202119CAB21AA22A9239000068B
:1004BE001207FBFB3395E0FA752B017D0C7F0212C0
:0304CE0010B02249
:1010F100E531650B7025E532B50C20E533B50D1BE7
:10110100E534B50E16E535B50F11E536B5100CE52C
:0F11110037B5110775200175120122E4F5202270
:100C50001207E2FF3395E0FE9000011207FBFD331F
:0E0C600095E0FC9000021207FBFB3395E0FAD2
:080C6E008C278D288F828E83F4
:100C7600C3E5289403E527648094805013740C25FB
:100C860028F528E43527F527E582158270021583B5
:100C9600E5282401FFE43527FE7C007D031208B118
:100CA6007D05120918AC06AD07E52825E0FFE52706
:100CB60033FEEF2BFFEE3ACF2DCF3CCF2582FBEF55
:100CC6003583FA7C007D04AF82AE83120918EF2BC0
:100CD600FBEE3AFA7C007D64AF82AE83120918C33C
:100CE600EB9FFBEA9EFAAE83AF827C017D901209F0
:100CF60018EF2BFFEE3AFE7C007D07120918ED0473
:010D0600FFED
:010D070022C9
:03000B00020FBE23
:090FBE00C0E0C0D075D000C007EE
:100FC700758A18758CFC0509E50970020508C39434
:100FD70064E5089400402C750800750900050AE5CA
:100FE7000A9404400F750A00E51670047F01800219
:100FF7007F008F16E517600B7464251EF51EE43518
:031007001DF51DB7
:07100A00D007D0D0D0E03286
:1012CC00EF1FAC0670011E4C600A7D027CEFDCFE49
:0412DC00DDFC80ECC9
:0112E00022EB
:10126D00C2A6C2A58F80D2A77F017E001212CCC26A
:08127D00A77F017E000212CCE4
:10128500D2A6C2A58F80D2A77F017E001212CCC242
:08129500A77F017E000212CCCC
:1011E2008F2D8D2EE52DB40105E52E148009E52DF8
:0E11F200B4020AE52E243F4480FF12126D2243
:1012E1007F3812126D7F0C12126D7F0612126D7F04
:0412F1000102126D77
:0A1314008B251211E2AF25021285AD
:06119C008B278A28892937
:1011A2001211E2E4F52AAB27AA28A929852A827519
:0F11B20083001207FBFF6007121285052A80E7F2
:0111C100220B
:0410B0008A298B2AD4
:1010B4001211E2852B2CE52CD39400402FE52C242F
:1010C400FFFDE434FFFC7F0A7E00121175AC29ADEC
:1010D4002ACFCDCFCECCCE1208C37C007D0A120815
:0C10E400C3ED2430FF121285152C80CAC9
:0110F00022DD
:081175008E2D8F2E8C2F8D3082
:10117D007F017E00E4FBEBC39530E52F6480F874AE
:0E118D008098500AAC2DAD2E1208B10B80E8F0
:01119B002231
:100B9300E4F52120B0137F14FE1212CC30B0FD7F98
:100BA300147E001212CC75210120B1147F147E0033
:100BB3001212CC30B1FD7F147E001212CC752102CB
:100BC30020B2147F147E001212CC30B2FD7F147E4B
:100BD300001212CC75210320B3147F147E0012126D
:100BE300CC30B3FD7F147E001212CC75210420900B
:100BF300147F147E001212CC3090FD7F147E0012FD
:100C030012CC7521052091147F147E001212CC3072
:100C130091FD7F147E001212CC7521062092147F61
:100C2300147E001212CC3092FD7F147E001212CC7F
:100C33007521072093147F147E001212CC3093FD8C
:0C0C43007F147E001212CC752108AF2136
:010C4F002282
:0912130007311901010B1F37031B
:05000300C2B5C2B622E7
:02101100A9072D
:10101300D2B5E4FB7E007401A803088005C333CE78
:1010230033CED8F9FFE9F582EF558224FF92B4D28B
:10103300B6C2B60BBB08DDE4FB7E007401A803084F
:101043008005C333CE33CED8F9FFEDF582EF558259
:0E10530024FF92B4D2B6C2B60BBB08DDC2B504
:01106100226C
:02106200AD07D8
:10106400E4F9430501D2B5FB7E007401A8030880AE
:1010740005C333CE33CED8F9FFEDF582EF55822484
:10108400FF92B4C2B6D2B60BBB08DDE4FBD2B6C243
:10109400B630B40DA8037401088002C333D8FC42EF
:0B10A400010BBB08E8C2B5C2B4AF01ED
:0110AF00221E
:100AB300E4FD7F8E121011E53175F00A1207C0C4F0
:100AC30054F0FFE53175F00A1207C0AEF0EF2EFDCA
:100AD3007F8C121011E53275F00A1207C0C454F06E
:100AE300FFE53275F00A1207C0AEF0EF2EFD7F88E6
:100AF300121011E53375F00A1207C0C454F0FFE574
:100B03003375F00A1207C0AEF0EF2EFD7F86121088
:100B130011E53475F00A1207C0C454F0FFE53475CB
:100B2300F00A1207C0AEF0EF2EFD7F84121011E51C
:100B33003575F00A1207C0C454F0FFE53575F00AA5
:100B43001207C0AEF0EF2EFD7F82121011E536754D
:100B5300F00A1207C0C454F0FFE53675F00A120715
:100B6300C0AEF0EF2EFD7F80121011E53775F00A4D
:100B73001207C0C454F0FFE53775F00A1207C0AE80
:100B8300F0EF2EFD7F8A1210117D807F8E021011EF
:100D9B007F8C121062EFC4540F75F00AA4FEEF544F
:100DAB000F2EF5317F88121062EFC4540F75F00AC5
:100DBB00A4FEEF540F2EF5327F86121062EFC4544F
:100DCB000F75F00AA4FEEF540F2EF5337F8412102B
:100DDB0062EFC4540F75F00AA4FEEF540F2EF534D6
:100DEB007F82121062EFC4540F75F00AA4FEEF5409
:100DFB000F2EF5357F80121062EFC4540F75F00A79
:100E0B00A4FEEF540F2EF5367F8A121062EFC454F6
:0C0E1B000F75F00AA4FEEF540F2EF537FF
:010E270022A8
:0A131E001213077FE87E030212CCD1
:0D13070012123A7FCC1212547F440212548D
:1011200012123A7FCC1212547FBE12125412121DA8
:101130008F2112121DEFFEE521FFFDAC06EC120718
:0B11400006E4FBFA798078410205DA32
:100D08001213071211208F1C8E1B8D1A8C19E4FFE9
:100D1800FEFDFCAB1CAA1BA91AA819120677501EC7
:100D28007B2D7D0A7F01121314AF1CAE1BAD1AACCC
:100D3800191206F08F1C8E1B8D1A8C1980097B2BBB
:100D48007D0A7F01121314AF1CAE1BAD1AAC191229
:100D5800073FAB07AA06752B027D0B7F011210B067
:100D68007B2E7D0D7F01121314E4FFFE7DC87C42AB
:100D7800AB1CAA1BA91AA8191204D112073F7C00A0
:100D88007D641208C3AA04AB05752B027D0E7F0192
:030D98000210B096
:10123A00D2B7C2B77FF7DFFED2B77F20DFFEA2B7F1
:09124A00E433FE7FF7DFFEAF067E
:011253002278
:1012F500C2B77E04DEFEEF24FF92B77E18DEFED273
:01130500B730
:0113060022C4
:10129D00C2B77F02DFFED2B77F02DFFEA2B7E43313
:0712AD00FE7F18DFFEAF0613
:0112B4002217
:02125400AD07E4
:10125600E4FCA8047401088002C333D8FC5DFF12C5
:0612660012F50CBC08ECBF
:01126C00225F
:10121D00E4FDFC12129DEF600DA80474010880021C
:0C122D00C333D8FC42050CBC08E9AF0537
:011239002292
:1012B5005389F0438901758A18758CFCC28DD28CCF
:0712C500D2A9D2AFC2B92289
:1004D100EC4D6011E8497017ED33EC3304600DE425
:1004E100FCFFFEFD22E933E8330470F80207AB128A
:1004F100077658046009E4CC24815006285009028B
:1005010007B52840030207B2C0E0EB4A7044B98046
:1005110006D0E0FB0207A1EF4E701CBD8008EBFF87
:10052100EAFEE9FD80EBE98DF0A4FEE5F00205BAF3
:10053100E9CDF9EAFEEBFFEF89F0A4FCE5F0CE8905
:10054100F0A42EFFE435F0CD89F0A42DFEE435F0C2
:100551008067EF4E7005BD80D780C3EF8BF0A4ACF0
:10056100F0EE8BF0A42CFCE435F0F8EF8AF0A42C2B
:10057100E5F038FCE433CB8DF0A42CFCE5F03BF83E
:10058100EE8AF0A42CFCE5F038F8E433CF89F0A42E
:100591002CFCE5F038CF3400CE89F0A42FFFE5F034
:1005A1003EFEE433C98DF0A42EFEE5F039CD8AF08C
:1005B100A42FFFE5F03EFEE43DFD33D0E0FB500704
:1005C1000BBB000F0207B5EC2CFCEF33FFEE33FE43
:0605D100ED33FD02078D71
:1005D7000207B5EC5D046005E8590470030207AB38
:1005E700120776580460F6EC4860F2EC7004FDFEE2
:1005F700FF22C860DB2481C85009C39860025006F7
:100607000207B29850CAF582E9294B4A7005AB82B6
:100617000207A175F0007C1A7880C3EF9BEE9AED74
:1006270099400DC3EF9BFFEE9AFEED99FDE842F06E
:10063700DC23ACF0D0E0FFD0E0FED0E0FDAB8220C1
:10064700E7101BEB60BAEC2CFCEF33FFEE33FEED4B
:1006570033FD02078DE803F830E705C0F075F000B9
:10066700EF2FFFEE33FEED33FD40B830E7C280AA2F
:1006770074F8CC6480CCC86480C8F58204604FC32A
:10068700EB9FF5F0EA9E42F0E99D42F0E89C45F0C9
:10069700603C501DE5825FFFE582D313CB5BCBF453
:1006A7002B5582FB50280ABA002409B9002008807C
:1006B7001DE5825BFBE582D313CF5FCFF4C3132F16
:1006C7005582FF50090EBE00050DBD00010CC3EB9E
:1006D7009FF5F0EA9E42F0E99D42F0E89C45F06004
:0906E70007CC4820E701B3EC2226
:1006F000ED33EC33600A047003BD8004ECB2E7FC18
:0107000022D6
:1007010075F020800E75F010800575F0087D007E73
:10071100007F003392D530D50312094EEC334010DF
:10072100EF33FFEE33FEED33FDEC33FCD5F0ED227C
:0E073100E5F0247EA2D513CC92E7CDCEFF22B8
:10073F00EDD2E7CD33EC3392D524814006E4FFFEB2
:10074F00FDFC22FCE4CFCECDCC24E0501174FF8011
:10075F00EDC3CC13CCCD13CDCE13CECF13CF0470AE
:07076F00F030D5DE02094E57
:10077600E9D2E7C933E833F892D5EDD2E7CD33ECC9
:0707860033FC5002B2D52242
:10078D00EC30E7100FBF000C0EBE00080DBD0004CD
:10079D000BEB6014A2D5EB13FCED92E7FD2274FF79
:1007AD00FCFDFEFF22E480F8A2D574FF13FC7D80D2
:0307BD00E480EFE6
:03000000020E28C5
:0C0E2800787FE4F6D8FD758137020E6F6C
:1007C000C2D530F707B2D563F0FF05F030E70CB2C1
:1007D000D5F4048463F0FF05F080018430D502F481
:0207E0000422F1
:1007E200BB010689828A83E0225002E722BBFE0215
:0907F200E32289828A83E4932248
:1007FB00BB010CE58229F582E5833AF583E02250B3
:10080B0006E92582F8E622BBFE06E92582F8E222FC
:0D081B00E58229F582E5833AF583E4932216
:10082800BB010989828A83F8E028F022500327F760
:1008380022BBFE05F8E328F3228A838982F8E49331
:02084800282264
:10084A00BB010FF8E58229F582E5833AF583E028B2
:10085A00F0225009C58229F8E58226F622BBFE0954
:10086A00C58229F8E22582F222F8EA2583F583E98E
:03087A009328229E
:10087D00BB010689828A83F0225002F722BBFE015A
:02088D00F32254
:10088F00F8BB010DE58229F582E5833AF583E8F09F
:10089F00225006E92582C8F622BBFE05E92582C84B
:0208AF00F22233
:1008B100EF8DF0A4A8F0CF8CF0A428CE8DF0A42E5B
:0208C100FE2215
:1008C300BC000BBE0029EF8DF084FFADF022E4CC19
:1008D300F875F008EF2FFFEE33FEEC33FCEE9DECE2
:1008E300984005FCEE9DFE0FD5F0E9E4CEFD22ED28
:1008F300F8F5F0EE8420D21CFEADF075F008EF2F72
:10090300FFED33FD4007985006D5F0F222C398FD62
:050913000FD5F0EA22FF
:10091800C2D5EC30E709B2D5E4C39DFDE49CFCEEFA
:1009280030E715B2D5E4C39FFFE49EFE1208C3C3A7
:10093800E49DFDE49CFC80031208C330D507C3E4A2
:060948009FFFE49EFE2269
:0E094E00C3E49FFFE49EFEE49DFDE49CFC22BA
:100E340002095CE493A3F8E493A34003F68001F26F
:100E440008DFF48029E493A3F85407240CC8C333BF
:100E5400C4540F4420C8834004F456800146F6DF8E
:100E6400E4800B0102040810204080901200E47E0C
:100E7400019360BCA3FF543F30E509541FFEE49383
:100E8400A360010ECF54C025E060A840B8E493A34A
:100E9400FAE493A3F8E493A3C8C582C8CAC583CA75
:100EA400F0A3C8C582C8CAC583CADFE9DEE780BE2D
:01121C0000D1
:00000001FF
