:1011B70020202D20202D20200020203A20203A20FA
:1011C700200053746F70776174636800573A005357
:0A11D700455454494E470020200003
:10130E0007191901010B1F3703070B1901010B1FD9
:06131E003B030224000065
:100ABA0012132512000312134B1213621212F77B40
:100ACA00FF7A1179B77D017F011211667BFF7A11D6
:100ADA0079C07D017F02121166AF19EF3395E0FEEE
:100AEA00AD1AED3395E0FCAB1BEB120C2B8F1F12EA
:100AFA000940120E758F26E526B40120E515700708
:100B0A00751501F5148015E515B40108E4F51512FB
:100B1A0009408008E515B40303E4F515E5266405E4
:100B2A00704FE515701C7515021213257BFF7A119B
:100B3A0079C97D017F01121166E4F524F525F517BF
:100B4A00802FE515B402057515038008E515B40371
:100B5A0020E4F5151213257BFF7A1179B77D017F01
:100B6A00011211667BFF7A1179C07D017F02121191
:100B7A0066E5151460151460261460282403705065
:100B8A00120EF612112F120CC98045752B00752C06
:100B9A0000752D147B007A00791912000E8031122B
:100BAA001208802C752B00752C00752D147B007A89
:100BBA0000790B12000E7BFF7A1179D37D0A7F022E
:100BCA001211667BFF7A1179D67D0A7F01121166AE
:100BDA00E512602E0513E513C394324007E4F512BB
:100BEA00F513C295B2957F057E00121281B2957FE8
:100BFA00057E00121281B2957F057E0012128102D3
:070C0A000AFCC295020AFC7E
:100CC90012134B12118C8F238E228D218C20E4FF5D
:100CD900FEFDFCAB23AA22A921A82012065B501E07
:100CE9007B2D7D0A7F01121358AF23AE22AD21ACB3
:100CF900201206D48F238E228D218C2080097B2BF4
:100D09007D0A7F01121358AF23AE22AD21AC201208
:100D19000723AB07AA067532027D0B7F011210EE7D
:100D29007B2E7D0D7F01121358E4FFFE7DC87C42A6
:100D3900AB23AA22A921A8201204B51207237C00FB
:100D49007D641208A7AA04AB057532027D0E7F01E6
:030D59000210EE97
:10120800E526B4060CE51770047F0180027F008F85
:1012180017E526B40707E4F524F525F517020F713D
:100F7100AE24AF257C037DE81208A78E288F29AE09
:100F810024AF257C037DE81208A78C2A8D2BAE287F
:100F9100AF297C007D3C1208A7AA06AB071210E717
:100FA1007B3A7D037F02121358AE28AF297C007D66
:100FB1003C1208A7AA04AB057532027D047F021218
:100FC10010EE7B2E7D067F02121358AE2AAF2B7CCA
:100FD100007D0A1208A7AA06AB077532027D077FBA
:040FE100020210EE0A
:100EF600120D5CE519FB3395E0FA7532027D017F30
:100F0600011210EEE51AFB3395E0FA7532027D0404
:100F16007F011210EEE51BFB3395E0FA7532027D78
:100F2600077F011210EEE51C1210E2E51DFB33955A
:100F3600E0FA7532027D047F021210EEE51EFB33E5
:100F460095E0FA7532027D077F021210EE7BFF7A7A
:100F56001179D37D0A7F02121166E51FFB3395E0F6
:0B0F6600FA7532017D0C7F020210EED4
:10000E008B288A29892AE526B40217AB2BAA2CA99C
:10001E002D740112080C1207C675F00784E5F01254
:10002E000861E5266403600302018FAB2BAA2CA99D
:10003E002D1207C6AB28AA29A92AF582758300744A
:10004E000112082E1207C6D3648094E3400AAB282F
:10005E00AA29A92AE4120861AB28AA29A92A900084
:10006E00011207DFD36480948C4008900001740164
:10007E001208739000011207DFFF6401601DEF6428
:10008E00036018EF64056013EF6407600EEF6408F9
:10009E006009EF640A6004EFB40C0F9000021207BF
:1000AE00DFD36480949F4067805D9000011207DF6C
:1000BE00FF6404600EEF64066009EF64096004EFEC
:1000CE00B40B0F9000021207DFD36480949E403F62
:1000DE0080359000011207DF640270331207C6FFED
:1000EE0075F0041207A4AFF0EF700F900002120724
:1000FE00DFD36480949D4017800D9000021207DFBD
:10010E00D36480949C40089000027401120873AB73
:10011E0028AA29A92A120C11AB28AA29A92A9000CB
:10012E0006EF1208739000031207DFD364809497D2
:10013E00400DAB28AA29A92A900003E4120873AB3C
:10014E0028AA29A92A9000041207DFD3648094BB41
:10015E004007900004E41208739000051207DFD3E5
:10016E00648094BB4007900005E41208739000066B
:10017E001207DFD3648094864007900006E41208CD
:10018E0073E52664046003020339AB2BAA2CA92D58
:10019E001207C6AB28AA29A92AF58275830074FF17
:1001AE0012082E1207C6C364809480500BAB28AA87
:1001BE0029A92A7463120861AB28AA29A92A9000DA
:1001CE00011207DFC3648094815008900001740C03
:1001DE001208739000011207DFFF6401601DEF64C7
:1001EE00036018EF64056013EF6407600EEF640898
:1001FE006009EF640A6004EFB40C28900002120745
:10020E00DFC3648094815008900002741F1208733B
:10021E009000021207DFD36480949F50030202D530
:10022E000202CD9000011207DFFF6404600EEF643E
:10023E00066009EF64096004EFB40B24900002120B
:10024E0007DFC3648094815008900002741E120868
:10025E00739000021207DFD36480949E4069805F22
:10026E009000011207DF6402705D1207C6FF75F081
:10027E00041207A4AFF0EF70249000021207DFC340
:10028E00648094815008900002741D1208739000CF
:10029E00021207DFD36480949D402C8022900002CE
:1002AE001207DFC3648094815008900002741C1200
:1002BE0008739000021207DFD36480949C4008906C
:1002CE00000274011208739000031207DFC36480EA
:1002DE009480500890000374171208739000041253
:1002EE0007DFC3648094805008900004743B1208AA
:1002FE00739000051207DFC364809480500890004D
:10030E0005743B1208739000061207DFC3648094D5
:10031E008050089000067406120873120C11AB2858
:10032E00AA29A92A900006EF120873AB2BAA2CA9B2
:10033E002D1207C6700CE516B401077F0112115E6F
:10034E008018AB28AA29A92A1207C6FB3395E0FA12
:10035E007532027D017F011210EEAB2BAA2CA92D56
:10036E001207C6B40114E516B4010F7BFF7A11799A
:10037E00DE7D047F01121166801BAB28AA29A92AF3
:10038E009000011207DFFB3395E0FA7532027D040F
:10039E007F011210EEAB2BAA2CA92D1207C6B402A8
:1003AE0014E516B4010F7BFF7A1179DE7D077F010C
:1003BE00121166801BAB28AA29A92A9000021207E7
:1003CE00DFFB3395E0FA7532027D077F011210EEE6
:1003DE00AB2BAA2CA92D1207C6B4030CE516B4013B
:1003EE00077F0212115E800FAB28AA29A92A90005E
:1003FE00031207DF1210E2AB2BAA2CA92D1207C68F
:10040E00B40414E516B4010F7BFF7A1179DE7D0476
:10041E007F02121166801BAB28AA29A92A9000041C
:10042E001207DFFB3395E0FA7532027D047F02126C
:10043E0010EEAB2BAA2CA92D1207C6B40514E51687
:10044E00B4010F7BFF7A1179DE7D077F02121166F0
:10045E00801BAB28AA29A92A9000051207DFFB33BF
:10046E0095E0FA7532027D077F021210EEAB2BAAD1
:10047E002CA92D1207C6B40612E516B4010D7BFF8A
:10048E007A1179DE7D0C7F02021166AB28AA29A9AA
:10049E002A9000061207DFFB3395E0FA7532017DD4
:0704AE000C7F021210EE2288
:03000B000210419F
:09104100C0E0C0D075D000C0076A
:10104A00758A18758CFC0509E50970020508C394B0
:10105A0064E5089400402C750800750900050AE546
:10106A000A9404400F750A00E51670047F01800295
:10107A007F008F16E517600B74642525F525E43586
:03108A0024F52426
:07108D00D007D0D0D0E03203
:1012AF00C2A6C2A58F80D2A77F017E00121281C273
:0812BF00A77F017E00021281ED
:1012C700D2A6C2A58F80D2A77F017E00121281C24B
:0812D700A77F017E00021281D5
:101228008F348D35E534B40105E535148009E5348E
:0E123800B4020AE535243F4480FF1212AF22B3
:101325007F381212AF7F0C1212AF7F061212AF7FF9
:04133500010212AFF0
:0A1358008B2C121228AF2C0212C7D2
:08115E007BFF7A1179DE7D01AF
:061166008B2E8A2F893058
:10116C00121228E4F531AB2EAA2FA93085318275E5
:0F117C0083001207DFFF60071212C7053180E7FB
:01118B002241
:0C10E200FB3395E0FA7532027D017F02BD
:0410EE008A308B3188
:1010F200121228853233E533D39400402FE533248E
:10110200FFFDE434FFFC7F0A7E001211E1AC30AD3A
:1011120031CFCDCFCECCCE1208A77C007D0A1208EB
:0C112200A7ED2430FF1212C7153380CA5D
:01112E00229E
:0811E1008E348F358C368D37FA
:1011E9007F017E00E4FBEBC39537E5366480F87434
:0E11F9008098500AAC34AD351208950B80E892
:0112070022C4
:100E7500E4F52820B00F7F14FE12128130B0FD1268
:100E8500127D75280120B10C12127D30B1FD1212B0
:100E95007D75280220B20C12127D30B2FD12127D32
:100EA50075280320B30C12127D30B3FD12127D7527
:100EB500280420900C12127D3090FD12127D7528A9
:100EC5000520910C12127D3091FD12127D752806B8
:100ED50020920C12127D3092FD12127D752807208A
:100EE500930C12127D3093FD12127D752808AF28E0
:010EF50022DA
:04127D007F147E005C
:10128100EF1FAC0670011E4C600A7D027CEFDCFE94
:04129100DDFC80EC14
:011295002236
:1012F7005389F0438901758A18758CFCC28DD28C8D
:07130700D2A9D2AFC2B92246
:05000300C2B5C2B622E7
:050FE5002DFDEE3CFCB7
:060FEA008C288D29AB07E5
:100FF000D2B5E4FD7E007401A805088005C333CE98
:1010000033CED8F9FFEBF582EF558224FF92B4D2AC
:10101000B6C2B60DBD08DDE4FD7E007401A805086A
:101020008005C333CE33CED8F9FFE5285EFEE5292F
:101030005F4E24FF92B4D2B6C2B60DBD08DBC2B576
:01104000228D
:02109400AD07A6
:10109600E4F9430501D2B5FB7E007401A80308807C
:1010A60005C333CE33CED8F9FFEDF582EF55822452
:1010B600FF92B4C2B6D2B60BBB08DDE4FBD2B6C211
:1010C600B630B40DA8037401088002C333D8FC42BD
:0B10D600010BBB08E8C2B5C2B4AF01BB
:0110E10022EC
:10094000E4FDFC7F8E120FEAE51975F00A1207A488
:10095000FF3395E0FEEFC4F8540FC868FFEEC454AF
:10096000F048FEE51975F00A1207A4ADF0ED3395D5
:10097000E0FCEF7F8C120FE5E51A75F00A1207A470
:10098000FF3395E0FEEFC4F8540FC868FFEEC4547F
:10099000F048FEE51A75F00A1207A4ADF0ED3395A4
:1009A000E0FCEF7F88120FE5E51B75F00A1207A443
:1009B000FF3395E0FEEFC4F8540FC868FFEEC4544F
:1009C000F048FEE51B75F00A1207A4ADF0ED339573
:1009D000E0FCEF2DFDEE3CFC7F86120FEAE51C7576
:1009E000F00A1207A4FF3395E0FEEFC4F8540FC8D5
:1009F00068FFEEC454F048FEE51C75F00A1207A427
:100A0000ADF0ED3395E0FCEF2DFDEE3CFC7F841264
:100A10000FEAE51D75F00A1207A4FF3395E0FEEF1B
:100A2000C4F8540FC868FFEEC454F048FEE51D75C5
:100A3000F00A1207A4ADF0ED3395E0FCEF2DFDEECA
:100A40003CFC7F82120FEAE51E75F00A1207A4FF34
:100A50003395E0FEEFC4F8540FC868FFEEC454F0BD
:100A600048FEE51E75F00A1207A4ADF0ED3395E0DF
:100A7000FCEF2DFDEE3CFC7F80120FEAE51F75F0C8
:100A80000A1207A4FF3395E0FEEFC4F8540FC868BC
:100A9000FFEEC454F048FEE51F75F00A1207A4AD3E
:100AA000F0ED3395E0FCEF2DFDEE3CFC7F8A120F5C
:0A0AB000EA7D807C007F8E020FEAD1
:100D5C007F8C121094EFC4540F75F00AA4FEEF545C
:100D6C000F2EF5197F88121094EFC4540F75F00AEA
:100D7C00A4FEEF540F2EF51A7F86121094EFC45474
:100D8C000F75F00AA4FEEF540F2EF51B7F84121082
:100D9C0094EFC4540F75F00AA4FEEF540F2EF51CFB
:100DAC007F82121094EFC4540F75F00AA4FEEF5416
:100DBC000F2EF51D7F80121094EFC4540F75F00A9E
:100DCC00A4FEEF540F2EF51E7F8A121094EFC4541C
:0C0DDC000F75F00AA4FEEF540F2EF51F57
:010DE80022E8
:10112F00E519650B7025E51AB50C20E51BB50D1BF0
:10113F00E51CB50E16E51DB50F11E51EB5100CE536
:0F114F001FB5110775270175120122E4F527223C
:0A13620012134B7FE87E0302128194
:0D134B001212637FCC1212967F440212969C
:10118C001212637FCC1212967FBE12129612124666
:10119C008F28121246EFFEE528FFFDAC06EC120676
:0B11AC00EAE4FBFA798078410205BEFE
:10126300D2B7C2B77FF7DFFED2B77F20DFFEA2B7C8
:09127300E433FE7FF7DFFEAF0655
:01127C00224F
:10133900C2B77E04DEFEEF24FF92B77E18DEFED22E
:01134900B7EC
:01134A002280
:1012DF00C2B77F02DFFED2B77F02DFFEA2B7E433D1
:0712EF00FE7F18DFFEAF06D1
:0112F60022D5
:02129600AD07A2
:10129800E4FCA8047401088002C333D8FC5DFF1283
:0612A80013390CBC08EC38
:0112AE00221D
:10124600E4FDFC1212DFEF600DA8047401088002B1
:0C125600C333D8FC42050CBC08E9AF050E
:011262002269
:100C11001207C6FF3395E0FE9000011207DFFD3396
:0E0C210095E0FC9000021207DFFB3395E0FA2D
:080C2F008C2E8D2F8F828E8325
:100C3700C3E52F9403E52E648094805013740C252C
:100C47002FF52FE4352EF52EE582158270021583D8
:100C5700E52F2401FFE4352EFE7C007D0312089565
:100C67007D051208FCAC06AD07E52F25E0FFE52E54
:100C770033FEEF2BFFEE3ACF2DCF3CCF2582FBEF94
:100C87003583FA7C007D04AF82AE831208FCEF2B1C
:100C9700FBEE3AFA7C007D64AF82AE831208FCC398
:100CA700EB9FFBEA9EFAAE83AF827C017D90120830
:100CB700FCEF2BFFEE3AFE7C007D071208FCED04EB
:010CC700FF2D
:010CC8002209
:1004B500EC4D6011E8497017ED33EC3304600DE441
:1004C500FCFFFEFD22E933E8330470F802078F12C2
:1004D500075A58046009E4CC2481500628500902C3
:1004E5000799284003020796C0E0EB4A7044B9809B
:1004F50006D0E0FB020785EF4E701CBD8008EBFFC0
:10050500EAFEE9FD80EBE98DF0A4FEE5F002059E2B
:10051500E9CDF9EAFEEBFFEF89F0A4FCE5F0CE8921
:10052500F0A42EFFE435F0CD89F0A42DFEE435F0DE
:100535008067EF4E7005BD80D780C3EF8BF0A4AC0C
:10054500F0EE8BF0A42CFCE435F0F8EF8AF0A42C47
:10055500E5F038FCE433CB8DF0A42CFCE5F03BF85A
:10056500EE8AF0A42CFCE5F038F8E433CF89F0A44A
:100575002CFCE5F038CF3400CE89F0A42FFFE5F050
:100585003EFEE433C98DF0A42EFEE5F039CD8AF0A8
:10059500A42FFFE5F03EFEE43DFD33D0E0FB500720
:1005A5000BBB000F020799EC2CFCEF33FFEE33FE7B
:0605B500ED33FD020771A9
:1005BB00020799EC5D046005E85904700302078F8C
:1005CB0012075A580460F6EC4860F2EC7004FDFE1A
:1005DB00FF22C860DB2481C85009C3986002500613
:1005EB000207969850CAF582E9294B4A7005AB82EF
:1005FB0002078575F0007C1A7880C3EF9BEE9AEDAD
:10060B0099400DC3EF9BFFEE9AFEED99FDE842F08A
:10061B00DC23ACF0D0E0FFD0E0FED0E0FDAB8220DD
:10062B00E7101BEB60BAEC2CFCEF33FFEE33FEED67
:10063B0033FD020771E803F830E705C0F075F000F1
:10064B00EF2FFFEE33FEED33FD40B830E7C280AA4B
:10065B0074F8CC6480CCC86480C8F58204604FC346
:10066B00EB9FF5F0EA9E42F0E99D42F0E89C45F0E5
:10067B00603C501DE5825FFFE582D313CB5BCBF46F
:10068B002B5582FB50280ABA002409B90020088098
:10069B001DE5825BFBE582D313CF5FCFF4C3132F32
:1006AB005582FF50090EBE00050DBD00010CC3EBBA
:1006BB009FF5F0EA9E42F0E99D42F0E89C45F06020
:0906CB0007CC4820E701B3EC2242
:1006D400ED33EC33600A047003BD8004ECB2E7FC34
:0106E40022F3
:1006E50075F020800E75F010800575F0087D007E90
:1006F500007F003392D530D503120932EC33401018
:10070500EF33FFEE33FEED33FDEC33FCD5F0ED2298
:0E071500E5F0247EA2D513CC92E7CDCEFF22D4
:10072300EDD2E7CD33EC3392D524814006E4FFFECE
:10073300FDFC22FCE4CFCECDCC24E0501174FF802D
:10074300EDC3CC13CCCD13CDCE13CECF13CF0470CA
:07075300F030D5DE0209328F
:10075A00E9D2E7C933E833F892D5EDD2E7CD33ECE5
:07076A0033FC5002B2D5225E
:10077100EC30E7100FBF000C0EBE00080DBD0004E9
:100781000BEB6014A2D5EB13FCED92E7FD2274FF95
:10079100FCFDFEFF22E480F8A2D574FF13FC7D80EE
:0307A100E480EF02
:03000000020DE905
:0C0DE900787FE4F6D8FD758137020E30EB
:1007A400C2D530F707B2D563F0FF05F030E70CB2DD
:1007B400D5F4048463F0FF05F080018430D502F49D
:0207C40004220D
:1007C600BB010689828A83E0225002E722BBFE0231
:0907D600E32289828A83E4932264
:1007DF00BB010CE58229F582E5833AF583E02250CF
:1007EF0006E92582F8E622BBFE06E92582F8E22219
:0D07FF00E58229F582E5833AF583E4932233
:10080C00BB010989828A83F8E028F022500327F77C
:10081C0022BBFE05F8E328F3228A838982F8E4934D
:02082C00282280
:10082E00BB010FF8E58229F582E5833AF583E028CE
:10083E00F0225009C58229F8E58226F622BBFE0970
:10084E00C58229F8E22582F222F8EA2583F583E9AA
:03085E00932822BA
:10086100BB010689828A83F0225002F722BBFE0176
:02087100F32270
:10087300F8BB010DE58229F582E5833AF583E8F0BB
:10088300225006E92582C8F622BBFE05E92582C867
:02089300F2224F
:10089500EF8DF0A4A8F0CF8CF0A428CE8DF0A42E77
:0208A500FE2231
:1008A700BC000BBE0029EF8DF084FFADF022E4CC35
:1008B700F875F008EF2FFFEE33FEEC33FCEE9DECFE
:1008C700984005FCEE9DFE0FD5F0E9E4CEFD22ED44
:1008D700F8F5F0EE8420D21CFEADF075F008EF2F8E
:1008E700FFED33FD4007985006D5F0F222C398FD7F
:0508F7000FD5F0EA221C
:1008FC00C2D5EC30E709B2D5E4C39DFDE49CFCEE17
:10090C0030E715B2D5E4C39FFFE49EFE1208A7C3DF
:10091C00E49DFDE49CFC80031208A730D507C3E4DA
:06092C009FFFE49EFE2285
:0E093200C3E49FFFE49EFEE49DFDE49CFC22D6
:100DF500020ABAE493A3F8E493A34003F68001F250
:100E050008DFF48029E493A3F85407240CC8C333FE
:100E1500C4540F4420C8834004F456800146F6DFCD
:100E2500E4800B010204081020408090130EE47E3C
:100E3500019360BCA3FF543F30E509541FFEE493C2
:100E4500A360010ECF54C025E060A840B8E493A389
:100E5500FAE493A3F8E493A3C8C582C8CAC583CAB4
:100E6500F0A3C8C582C8CAC583CADFE9DEE780BE6C
:0113240000C8
:00000001FF
